:020000040800F2
:1000000060690020810200089F610008E355000834
:100010009D610008051500081D840008000000000F
:10002000000000000000000000000000C101000806
:10003000CD1B0008000000001D020008D973000855
:100040009B0200089B0200089B0200089B0200081C
:100050009B0200089B0200089B0200089B0200080C
:100060009B0200089B0200089B0200089B020008FC
:10007000991900089B020008A51900089B020008B6
:10008000B1190008BD1900089B02000821150008DD
:10009000151500089B0200089B0200089B0200083F
:1000A0009B0200089B0200089B0200089B020008BC
:1000B0009B0200089B0200089B0200089B020008AC
:1000C0009B0200089B0200089B0200089B0200089C
:1000D0009B020008098000080D8000084D80000880
:1000E0009B0200089B0200089B0200089B0200087C
:1000F0009B0200089B0200089B0200089B0200086C
:100100009B020008316200089B0200089B02000865
:100110009B0200089B020008C17600089B020008B1
:100120009B020008C91900089B0200089B020008F6
:100130009B0200089B0200089B020008391500087A
:100140002D1500089B0200089B0200089B02000876
:10015000D51900089B0200089B0200088580000852
:100160009B0200089B0200089B0200089B020008FB
:100170009B0200089B0200089B0200080000000090
:100180009B0200089B0200085D7A0008617A000863
:100190009B0200089B0200089B0200089B020008CB
:1001A00000000000000000009B020008DFF80CD0F7
:1001B00000F0F0FC00480047EBD600086069002022
:1001C0002C4B19680868B0E8F04F80F30988BFF33A
:1001D0006F8F4FF0000080F311887047000000001F
:1001E00008480068006880F308884FF0000080F33A
:1001F000148862B661B6BFF34F8FBFF36F8F00DF15
:1002000000BF00BF08ED00E0DFF80C00016841F41A
:1002100070010160704700BF88ED00E0EFF30980D6
:10022000BFF36F8F134B1A681EF0100F08BF20ED3D
:10023000108A20E9F04F106009B44FF0500080F3AD
:100240001188BFF34F8FBFF36F8F0FF01DFC4FF07E
:10025000000080F3118809BC19680868B0E8F04F05
:100260001EF0100F08BFB0EC108A80F30988BFF3AE
:100270006F8F704730000020EFF30580704700005B
:100280000648804706480047FEE7FEE7FEE7FEE730
:10029000FEE7FEE7FEE7FEE7FEE7FEE76D76000815
:1002A000AD0100089FED1A1AF5EE000A40EE010AB2
:1002B000BDEEE00AF5EEC00A10EE100AF1EE10FAFB
:1002C00038BF401E00EE100A1349F7EE001AB8EED0
:1002D000C00A30EEC00ADFED0F0A20EE200AFCEE65
:1002E000C00A10EE900AC0F3080000EE900A01EB7D
:1002F0008000F8EE600A90ED011A70EE600A90ED51
:10030000000A71EEE01A21EE800A00EE810A7047C1
:1003100083F9223E00000044000D0108B5EEC00A3A
:10032000F1EE10FA07D2DFED1E0AB4EEE00AF1EEAC
:1003300010FAA8BF7047DFED1B0AB5EEC00A60EEE9
:10034000200ABDEEE01A11EE100AF1EE10FA38BFE5
:10035000401E00EE100A1549F7EE001AB8EEC00A6A
:1003600030EEC00ADFED100A60EE200ABCEEE00AB3
:1003700010EE100AC0F3080000EE100A01EB800036
:10038000B8EE400A90ED011A70EEC00A90ED000A36
:1003900071EEE01A21EE800A00EE810A704700003B
:1003A000CD024CB483F9223E00000044000D010848
:1003B0002DE9F05F0546002092469B46884606469A
:1003C000814640241BE0284641464746224600F02D
:1003D000AAFA53465A46C01A914110D311461846FC
:1003E000224600F091FA2D1A67EB01084F4622468B
:1003F0000120002100F088FA17EB00094E41201E71
:10040000A4F10104DFDC484631462A464346BDE8F4
:10041000F09F40EA01039B0703D009E008C9121FBF
:1004200008C0042AFAD203E011F8013B00F8013BAE
:10043000521EF9D27047D2B201E000F8012B491EDA
:10044000FBD270470022F6E710B513460A46044671
:100450001946FFF7F0FF204610BD2DE9FE4F8046FC
:1004600081EA0300C00F0C46009021F0004123F008
:100470000045B8EB0200A94105D24046214690460E
:100480001C460B46024623F00040104347D0270D80
:10049000C7F30A00C3F30A510290401A01904028A2
:1004A0006BDAC3F3130040F4801B0098924620B12E
:1004B0000023D2EB030A63EB0B0B01985946C0F102
:1004C0004002504600F020FA06460D465046594676
:1004D000019A00F038FA10EB08006141002487EA25
:1004E000115284EAE7731A4340D0009A62B3019A2A
:1004F000012A4FEA075215DC001B61EB02014FF0A5
:10050000004202EA0752CDE90042001C41F5801189
:1005100032462B4600F06FFA03B0BDE8F08F40463C
:100520002146F9E7001B61EB0201001C41F5801335
:1005300000185B412018A2F5001747EB030140EAC1
:10054000D570B6196D4111E06D084FEA360645EADF
:10055000C0754FEA0752001B61EB0201001C41F518
:10056000801149084FEA30000019514132462B46AC
:1005700003B0BDE8F04F00F02FBA00980122400010
:100580000023D0EB020263EBE073009821464FEAB0
:10059000E074B8EB000061EB0401E9E783F000438D
:1005A0005BE781F0004158E72DE9FE4F81EA030443
:1005B00004F0004421F0004100944FF0000B23F0C0
:1005C000004350EA01045ED052EA03045BD0C3F357
:1005D0000A54C1F30A552C44A4F2F3340194A0FB4D
:1005E0000254C1F3130141F48011C3F3130343F424
:1005F000801301FB024400FB034E840A970A44EA7D
:10060000815447EA8357A4FB076802958D0A05FBCE
:1006100007854FEA932C04FB0C542705029D4FEAF3
:10062000065847EA1637B5EB08056EEB070C870E40
:10063000920E47EA811742EA8312A7FB0201B6EB4A
:100640000B0164EB00042B0D43EA0C335E1844EB02
:100650001C50DA465146E7FB0201C5F313044FEA8A
:100660000B3343EA14534FEA0432019C43EA060376
:10067000A4F10C040294009CCDE900B400F0BBF995
:1006800003B0BDE8F08F00200146F9E72DE9F04DF9
:1006900081EA030404F0004B21F0004514464FF0BA
:1006A000000A23F0004150EA050220D054EA01027A
:1006B0001DD0C5F30A570246C5F31303C1F3130057
:1006C000C1F30A5640F4801543F48013A7EB0608E3
:1006D000101BD64608F2FD3873EB050002D308F173
:1006E000010801E092185B41B8F1000F03DA002025
:1006F0000146BDE8F08D00204FF480110646844687
:100700000EE0171B73EB050705D3121B63EB050304
:1007100006434CEA010C49084FEA300092185B414D
:1007200050EA0107EDD152EA030012D082EA040038
:1007300083EA0501084305D0101BAB4106D2012214
:10074000002306E000224FF0004302E06FF00102B8
:1007500053101AEB06004CEB085110EB0A0041EB6A
:100760000B01BDE8F04D00F037B9F0B4CA17CB0F5C
:1007700050405140C61841F100054FEAC37231465E
:1007800028004FF0960303D0B623F0BC00F0F6B873
:1007900030460021F9E70EB5C10F80EAE070084449
:1007A000CA07002140F233438DE80E000A460B468B
:1007B00000F021F903B000BD3EB5CA17CB0F0024ED
:1007C00050405140C0186141DA0740F23343009471
:1007D000CDE901232246234600F00DF903B030BDD8
:1007E00070B5C1F30A5201F000450024C1F31301B2
:1007F00040F2FF3341F480119A4201DA002070BDCB
:1008000040F233439A42A2F2334203DC524200F0F8
:100810008AF800E090402C43F1D0404270BD00F0D7
:10082000004230F000400AD0C10D01F56071C0F304
:10083000160042EA0151C2084007114370470020E8
:100840000146704730B5041E71F1000404DB4FF01F
:100850000044404264EB0101141E73F1000405DB07
:100860001C464FF00043524263EB04038B4208BF27
:10087000824230BD30B5041E71F1000404DB4FF03C
:100880000044404264EB0101141E73F1000405DBD7
:100890001C464FF00043524263EB0403994208BFE9
:1008A000904230BD01F0004330B421F0004150EAE5
:1008B000010206D00A0DA2F56072C1F31301002AED
:1008C00002DC30BC00207047440F44EAC104C10080
:1008D000E01830BC00EBC25000F047B830B50B4612
:1008E000014600202022012409E021FA02F59D4260
:1008F00005D303FA02F5491B04FA02F52844151E34
:10090000A2F10102F1DC30BD202A04DB203A00FA1A
:1009100002F1002070479140C2F1200320FA03F356
:10092000194390407047202A04DB203A21FA02F054
:100930000021704721FA02F3D040C2F12002914019
:10094000084319467047202A06DBCB17203A41FAA4
:1009500002F043EAE07306E041FA02F3D040C2F14C
:10096000200291400843194670470029A8BF7047EC
:10097000401C490008BF20F00100704710B4B0FAD5
:1009800080FC00FA0CF050EA010404BF10BC704770
:1009900049B1CCF1200421FA04F411FA0CF118BF8A
:1009A000012121430843A3EB0C01CB1D4FEA006159
:1009B0004FEA102042BF002010BC704700EBC3502C
:1009C00010440029A4BF10BC7047401C490008BF58
:1009D00020F0010010BC704710B5141E73F1000424
:1009E00008DA401C41F1000192185B411A4301D121
:1009F00020F0010010BD2DE9F04D92469B4611B14B
:100A0000B1FA81F202E0B0FA80F220329046FFF7AC
:100A10007BFF04460F4640EA0A0041EA0B015346B9
:100A20005A46084313D0114653EA010019D0C8F1C1
:100A300040025046FFF777FF05460E46504659469E
:100A40004246FFF761FF084305D0012004E020463D
:100A50003946BDE8F08D0020054346EAE0762C4398
:100A600037430A986305E40AA0EB08000022FD0A58
:100A700044EA47540A3002D500200146E9E701055F
:100A800010196941DDE9084500196941BDE8F04DDB
:100A9000A2E770B521F0004303430CD0C1F30A551F
:100AA0000024D5EB040564EB0403D617AD1AB3415B
:100AB00002DB0020014670BD201841EB025170BDE1
:100AC0002DE9F04D00231A461B1A8A4103DB002052
:100AD0000146BDE8F08DC1F30A52C1F3130141F4A0
:100AE00080154FF0000BD10702D100186D41521E46
:100AF0000027044640F2FF11384601EB620A3E46E9
:100B00008046024600204FF48011FFF70CFFC21907
:100B10007141BB1846EB0100B4EB030C75EB000C04
:100B200004D3E41A65EB000517460E46241908F1B4
:100B300001006D4180463428E3DDF91946EB0600DB
:100B4000091BA84103D24FF0FF32134601E00022F7
:100B500013461BEB070046EB0A51BDE8F04DFFF7CB
:100B60003BBFC1F30A52C1F3130140F2FF3341F41A
:100B700080119A4202DA00200146704740F2334366
:100B80009A42A2F2334202DC5242FFF7CCBEFFF798
:100B9000BBBE0000064C074D06E0E06840F00103D4
:100BA00094E8070098471034AC42F6D3FFF702FBF5
:100BB0002C1701084C1701080EB540F23341029181
:100BC0000021CDE900110A460B46FFF714FF03B0E0
:100BD00000BD70B58C1810F8015B15F0070301D14A
:100BE00010F8013B2A1106D110F8012B03E010F890
:100BF000016B01F8016B5B1EF9D12B0705D40023B3
:100C0000521E0DD401F8013BFAE710F8013BCB1A54
:100C1000921C03E013F8015B01F8015B521EF9D549
:100C2000A142D8D3002070BD07F06EBC07F002BD12
:100C3000FFF738BBF0EE400AF5EEC00AF1EE10FA0D
:100C400002DDB0EE600A7047B1EE600AFBE700001B
:100C5000002803D09FED020A80ED000A70470000D3
:100C600000004842002803D09FED020A80ED000AF0
:100C7000704700000000184270B52DED0C8B84B059
:100C800006460C4615469FED990AF0EE408A9FED08
:100C9000970AB0EE409A9FED950AF0EE40BA9FEDAC
:100CA000930AF0EE409A9FED910AB0EE40AA0EB181
:100CB00004B11DB904B0BDEC0C8B70BD8C48FFF7BE
:100CC000C7FF8C48FFF7CEFF8A48D0ED000A9FEDA2
:100CD0008A1A60EE810AB0EE600A00F031F9F0EE97
:100CE000408A28EEA80AF0EE408A8248D0ED000A39
:100CF000B0EE001A60EE810A9FED7F1A60EE810A65
:100D0000B0EE600A00F01CF9B0EE409A29EE090A34
:100D1000B0EE409ADFED790AB7EE000A00EEA80ABD
:100D2000DFED770A00EEC90ADFED760A20EE200A31
:100D3000754880ED000A6E4890ED000ADFED730AF9
:100D400080EE201AB7EE000A31EE000A20EE000A0B
:100D50006D48D0ED000A80EE801A6D4880ED001AD3
:100D600094ED000AB5EEC00AF1EE10FA0DD194ED43
:100D7000010AB5EEC00AF1EE10FA06D194ED020AAE
:100D8000B5EEC00AF1EE10FA46D09FED580AB0EE6B
:100D9000408A0020019002900390D4ED000A60EE9A
:100DA000A00A94ED011AD4ED011A41EE210A94ED46
:100DB000021AD4ED021A41EE210AB0EE600A00F0E8
:100DC000A9F8B0EE408A94ED000A20EE080A8DEDF5
:100DD000010A94ED010A20EE080A8DED020A94ED55
:100DE000020A20EE080A8DED030ADDED010AF1EE9C
:100DF000600AB0EE600AFFF717FFF0EE409A9DED33
:100E0000031AF0EE410A9DED021AB0EE410AFFF717
:100E10000DFFB0EE40AA07E09FED340AF0EE409AD5
:100E20009FED320AB0EE40AA95ED000AB5EEC00A79
:100E3000F1EE10FA0DD195ED010AB5EEC00AF1EE12
:100E400010FA06D195ED020AB5EEC00AF1EE10FADD
:100E50003CD0B0EE690A00F073F8B0EE408AB0EE14
:100E6000690AFFF7E5FEB0EE40DAB0EE4A0A00F09C
:100E700067F8F0EE40AAB0EE4A0AFFF7D9FEB0EEEE
:100E800040BA28EE2A0AD5ED010A20EE200AD5ED57
:100E9000000A0DEE200A68EE0B0A95ED021A00EE2C
:100EA000810AB0EE40CA95ED010A20EE0B0AD5ED9D
:100EB000020A0AEEE00AF0EE40CAF0EE6C0AB0EE6A
:100EC0004C0AFFF7B3FEF0EE40BA03E09FED070ACD
:100ED000F0EE40BAB0EE4A1AF0EE690AB0EE6B0AD4
:100EE00030460AF0B3F800BFE4E60000000000005E
:100EF000E0030020E403002035FA8E3CC1BFAD3B87
:100F00009DF8C5362F7C1C41E8030020506CC24A76
:100F1000EC030020F6EE000A60EE200A10EE100A44
:100F20000649A1EB600000EE100A20EE801AF7EEF1
:100F3000080A41EE400A20EE800A7047DF59375F09
:100F4000FFF7ECB92DE9F0412DED028B9AB0054683
:100F5000B0EE408A0E46174698460020179018902B
:100F600019901490159016904DB146B13FB1B8F15B
:100F7000000F04D0B5EEC08AF1EE10FA05D10020C2
:100F80001AB0BDEC028BBDE8F08196ED000A8DED44
:100F9000170A96ED010A8DED180A96ED020A8DEDFD
:100FA000190A97ED000A8DED140A97ED010A8DEDEF
:100FB000150A97ED020A8DED160A17AA14A92846FC
:100FC00009F096FE402104A8FFF73CFA00200090AB
:100FD000019002900390002417A904A80EF0DCFAF7
:100FE00000BF30E004A800EB041090ED000AD5ED3E
:100FF000000A20EE200A04A800EB0410D0ED010A3C
:1010000095ED011A00EE810A04A800EB0410D0ED62
:10101000020A95ED021A00EE810A04A800EB041002
:10102000D0ED030A95ED031A00EE810A20EE080ABE
:10103000F0EE000A80EE201A684600EB840080ED96
:10104000001A601CC4B2042CCCDB002410E005EBB9
:10105000840090ED000A684600EB8400D0ED000AA1
:1010600030EE200A05EB840080ED000A601CC4B25B
:10107000042CECDB28460DF095FC012080E70000F5
:1010800070B586B05C4C012320786178B0FBF1F23A
:1010900001FB1205491E594A8D4200D19370A17877
:1010A000B0FBF1F501FB1505491E8D4200D15370CF
:1010B000E178B0FBF1F501FB1505491E8D4200D129
:1010C00053722179B0FBF1F501FB1505491E8D42E4
:1010D00000D1D3726179B0FBF1F501FB1505491E12
:1010E0008D4200D11373401C20701178002059B13B
:1010F000107000904FF4C87364224FF4967104206E
:1011000000F0B8F906B070BD3D49537891ED170A6B
:101110008BB150703B489FED3C1A0022D0ED000A85
:10112000104620EE811AD1ED070A06B01146BDE83F
:10113000704000F047B99378344C354D83B39070CC
:10114000344A354BB4F95C61B2F90820B3F9043084
:10115000CDE90420BDEEC00ACDE9026310EE102AED
:10116000B4F9040112B2CDE9002095ED020AB5F9F7
:101170001020BDEEC00A10EE100A91ED150A03B260
:10118000BDEEC00A10EE100A01B2244890ED0E0A1E
:10119000BDEEC00A10EE100A00B200F0A9F8B1E7E7
:1011A000FFE7517A99B15072029003900490059034
:1011B0001B48698C408CCDE90010B4F82A31B4F892
:1011C000D220B4F87A10608C00F036F89AE7D17A21
:1011D00009B1D07296E7117B09B1107392E7D1780B
:1011E00009B1D0708EE7117909B110718AE7517990
:1011F000002987D0507185E7410300208E600020D0
:101200001C570020200300200000B442505A002048
:10121000F8010020A44E0020245A0020305E002057
:10122000500200200A460249024804F0B8B9000002
:101230009B600020C80C00203FB42C48AA210170FC
:101240004170032181709DF8011001719DF800101B
:1012500041719DF8051081719DF80410C1719DF8D0
:10126000091001729DF8081041729DF80D108172ED
:101270009DF80C10C1729DF8191001739DF818109B
:1012800041739DF81D1081739DF81C10C1739DF86A
:10129000211001749DF8201041749DF8251081746F
:1012A0009DF82410C1749DF8291001759DF828102F
:1012B00041759DF82D1081759DF82C101823C1756E
:1012C0001421C17000220020084C04E0215C11446C
:1012D000CAB2401CC0B29842F8D3581CC1B2E25402
:1012E00004B0024830BCFFF79DBF00009B600020A7
:1012F0002DE9F80708ADDDF8308095E8E010304CB6
:101300004FF0AA0984F8009084F801904FF0020988
:1013100084F8029000909DF8010020719DF8000073
:10132000607100919DF80100A0719DF80000E071CE
:1013300000929DF8010020729DF8000060720093F9
:101340009DF80100A0729DF80000E07200959DF8E4
:10135000010020739DF80000607300969DF8010065
:10136000A0739DF80000E07300979DF801002074C1
:101370009DF800006074CDF800C09DF80100A074D5
:101380009DF80000E074CDF800809DF80100207504
:101390009DF80000162360751220E07000220020E6
:1013A00004E0215C1144CAB2401CC0B29842F8D398
:1013B000581CC1B2E254BDE8F8070148FFF732BF3C
:1013C0009B6000203CB400902848AA2401230470AC
:1013D00044708370DFED261A20EE210ABDEEC00AAC
:1013E00010EE103A01939DF8053003719DF804301A
:1013F000437120EEA10ABDEEC00A10EE103A01932F
:101400009DF8053083719DF80430C37121EE210AE7
:10141000BDEEC00A10EE103A01939DF8053003723C
:101420009DF8043043729DF8033083729DF80230BA
:10143000C3729DF8013003739DF8003043738173CC
:101440001023C2730C21C17000220020074C04E05D
:10145000215C1144CAB2401CC0B29842F8D3581C57
:10146000C1B2E2543CBC0148FFF7DCBE9B600020E7
:101470000000C8423FB41A4AAA21117051700021DD
:10148000917010719DF8050050719DF804009071E5
:101490009DF80900D0719DF80810092011729DF87F
:1014A0000D1051729DF80C1091729DF81910D172A7
:1014B0009DF818100D241173D0700023002004E053
:1014C000115C1944CBB2401CC0B2A042F8D3601CDE
:1014D000C1B2135504B0024830BCFFF7A3BE0000F0
:1014E0009B60002030B505460C46002D09D0022C2B
:1014F00007D9FF22611E284600F046FC291901F891
:10150000010C30BDFEE70000014900200860704773
:1015100034180040014800F0FCBD0000F803002032
:10152000014800F0F6BD0000F8030020014800F07B
:10153000F0BD000020040020014800F0EABD0000DA
:1015400020040020F0B595B0054614492868002411
:1015500001260E2788420DD1139610940F940B94F8
:101560000C940D940E941194129614970BA90C4898
:1015700000F0C4FC0B49286888420DD109960697F3
:1015800005940194029403940494079408960A978E
:1015900001A9054800F0B2FC15B0F0BD00640040A0
:1015A000F8030020006800402004002010B5044625
:1015B000204601F02AFA0221204600F013FC2046C2
:1015C000BDE81040FFF7BEBF70B588B0DDE90C453F
:1015D000082606960026049605960291110A8DF8B3
:1015E00000108DF80120190A8DF802108DF80330D3
:1015F000210A8DF804108DF80540290A8DF806108F
:101600008DF8075001236A4602A900F0FDFB08B0DF
:1016100070BD000070B506460D46AAA1304600F028
:1016200093F920B128460CF00FFB002070BDA6A155
:10163000304600F089F920B128460CF039FB002033
:1016400070BDA2A1304600F07FF920B128460CF011
:1016500063FB002070BD9EA1304600F075F920B1FB
:1016600028460CF08BFB002070BD9AA1304600F09C
:101670006BF920B128460CF0B5FB002070BD96A197
:10168000304600F061F920B128460CF0ACFB002098
:1016900070BD92A1304600F057F920B128460CF0F9
:1016A000A3FB002070BD8EA1304600F04DF920B1A3
:1016B00028460CF09AFB002070BD8AA1304600F04D
:1016C00043F920B128460CF091FB002070BD86A1A3
:1016D000304600F039F9854C48B194ED020B51ECDD
:1016E000100BFFF77DF80CF0C3FB002070BD80A14C
:1016F000304600F029F948B194ED020B51EC100B83
:10170000FFF76EF80CF0B5FB002070BD79A13046F4
:1017100000F01AF948B194ED020B51EC100BFFF7F1
:101720005FF80CF0A7FB002070BD73A1304600F0FD
:101730000BF948B194ED020B51EC100BFFF750F888
:101740000CF099FB002070BD6CA1304600F0FCF855
:1017500048B194ED020B51EC100BFFF741F80CF07F
:101760008BFB002070BD66A1304600F0EDF848B15B
:1017700094ED020B51EC100BFFF732F80CF07DFBEF
:10178000002070BD5FA1304600F0DEF818B10BF00C
:101790008BFC002070BD5CA1304600F0D5F818B17C
:1017A00009F00AFD002070BD58A1304600F0CCF8C9
:1017B00018B10BF0D5FE002070BD55A1304600F0E9
:1017C000C3F818B10DF056F9002070BD51A1304694
:1017D00000F0BAF818B10DF017FC002070BD4EA152
:1017E000304600F0B1F818B10BF068FC002070BD75
:1017F0004AA1304600F0A8F818B10BF061FC0020B7
:1018000070BD47A1304600F09FF818B109F0D6FC32
:10181000002070BD43A1304600F096F818B109F0E1
:10182000CFFC002070BD40A1304600F08DF818B10B
:101830000BF03CFC002070BD3CA1304600F084F869
:1018400018B109F0BAFC002070BD39A1304600F093
:101850007BF818B10BF085FE002070BD35A1304635
:1018600000F072F818B10DF006F9002070BD32A139
:10187000304600F069F818B10BF021FC002070BD73
:101880002EA1304600F060F818B10BF01AFC0020D1
:1018900070BD2BA1304600F057F818B109F08FFC4D
:1018A000002070BD27A1304600F04EF818B109F0B5
:1018B00088FC002070BD2946304609F0BDFF00209D
:1018C00070BD00002A3100002A3200002A330000D7
:1018D0002A3400002A3500002A3600002A3700008A
:1018E0002A3800002A39000023310000006200205D
:1018F000233200002333000023340000233500008E
:101900002336000040310000403200004033000028
:1019100040340000403500004036000040370000F1
:10192000403800004039000024310000243200001B
:101930002433000024340000243600002437000043
:10194000243800002439000030B504460B462046F8
:1019500005F08EFC0546184605F08AFC85420CD140
:10196000002004E0215C1A5C914204D1401CA84292
:10197000F8DB012030BD002030BD002030BD00224A
:10198000835C2BB18B54521C642AF9DB0120704715
:10199000805C885401207047014801F0C3B8000002
:1019A000080F0020014801F0BDB80000880D00209C
:1019B000014801F0B7B80000A80E0020014801F06E
:1019C000B1B80000E80D0020014801F0ABB80000FC
:1019D000680F0020014801F0A5B80000480E002063
:1019E0000168CAB2103A1823B2FBF3F2064B9B5CB3
:1019F000C3656FF30901032A02D9091D816500E05F
:101A00008165806D70470000C409010810B501466A
:101A100000208A6A8B694FF0C074002B0ED0B3F59A
:101A2000005F1AD062B3012A2AD0022A28D0032AE2
:101A300003D1C96AC90100D5012010BD1AB1012A1C
:101A400006D0022AF9D1C96AC901F6D5012010BD14
:101A5000C96AA142FBD1012010BD52B1012A0AD0AE
:101A6000022A06D0032AF7D1C96AA142F4D1012083
:101A700010BD012010BDC96AC901FBD5012010BDF0
:101A8000012010BD30B50468256825F48025256047
:101A9000046863608368402B04D003689960006821
:101AA000C26030BD03689A600068C16030BD00004C
:101AB0002DE9F04780464FF000090125404605F02A
:101AC000D7FB0646300002D000241B4F2FE0002039
:101AD000BDE8F087621C2146404605F0D3FB17A104
:101AE000FFF732FF88B122464946404605F0CAFB5F
:101AF00005F024FB10EE100AFEF791FE07EBC5027D
:101B000003C26D1C04F1010910E0301B01280DD146
:101B100032464946404605F0B5FB05F00FFB10EE96
:101B2000100AFEF77CFE07EBC50203C2641CB44238
:101B3000D0DB2846CCE70000006200202000000037
:101B400070B5204A204C2828117800D159B111B124
:101B50004B1C13706054292833D11078002525546C
:101B60001570002309E02823012111702370F2E78A
:101B7000E0184078E0545B1CDBB2134805F078FBBA
:101B8000401E9842F4DC104805F072FB204400F837
:101B9000025C0D4A0C48503AA2F1140105F0C3F85A
:101BA00009485038FFF784FF014607486438FFF7BB
:101BB00031FD0020044950390D54401CC0B2642846
:101BC000FAD370BD5003002034610020704700003C
:101BD00010B50B498888401C80B28880094A0128CA
:101BE00003D114684FF4C8736363C41E00233B2CF5
:101BF00002D21068436310BD3E28FCD98B8010BD13
:101C0000D0000020C80B002030B5104BD888401CF5
:101C100080B2D8800E494FF4C874012801D10A68F7
:101C20005463C51E0022032D01D20D686A63072884
:101C300001D10D686C63A0F109043B2C02D2086845
:101C4000426330BD4428FCD9DA8030BDD00000208A
:101C5000C80B002030B5154C2089401C80B2208173
:101C600013494FF4C873012801D10A685363C51E94
:101C70000022032D01D20D686A63072801D10D6887
:101C80006B63A0F10905032D01D20D686A630D286D
:101C900001D10D686B63A0F10F033B2B02D20868E2
:101CA000426330BD4A28FCD9228130BDD0000020DB
:101CB000C80B002030B51A4C6089401C80B260818E
:101CC00018494FF4C873012801D10A685363C51E2F
:101CD0000022032D01D20D686A63072801D10D6827
:101CE0006B63A0F10905032D01D20D686A630D280D
:101CF00001D10D686B63A0F10F05032D01D20D68B2
:101D00006A63132801D10D686B63A0F11503272BBB
:101D100002D20868426330BD3C28FCD9628130BDE4
:101D2000D0000020C80B0020024900200968486349
:101D300070470000C80B0020704702460020431E79
:101D4000115C202904D021B1401C6428F8DB18461E
:101D5000704718467047000010B503461046002B28
:101D600001D0084C0AE04FF6FF7010BD13F8012BAC
:101D70004240D2B234F8122082EA1020491E4A1C96
:101D8000F4D110BDE40A010810B5054C03E010F8C9
:101D9000013B5340E25C491E4B1CF8D1104610BD7C
:101DA000E409010810B51E230D4C0C4A608822F886
:101DB00010101E280DD3B2F90000A080002105E00C
:101DC0004C1C32F8144022F81140491C9942F7DBB0
:101DD00010BD401C6080002010BD00004A4F002054
:101DE0003001002090F82020012A07D0022A05D0D7
:101DF000416A41F4802141620120704700684269D4
:101E00000A43426100207047F0B590F82050046802
:101E1000A468012D07D0022D05D0416A41F480212C
:101E200041620120F0BD04F0806504F00066354396
:101E300001D1E5005BD5C4F30164022C05D9416AE8
:101E400041F4000141620120F0BD0125A5401D6063
:101E50008B684FF4C0759BB1CE6805EB0417334314
:101E60004E6843EAC6030668F3514FF4C27307682D
:101E700003EB04130E69FE50097D012909D00DE022
:101E80000E88CB6805EB041743EA46530668F35106
:101E9000EBE70168CE5846F48076CE501179D379BD
:101EA000567941EA036193791B0443EA06231943F7
:101EB0004FF4C676036806EB041699511178D3786F
:101EC00041EA0361937852781B0443EA02221143EA
:101ED0004FF4C473026803EB0413D150006805EBA0
:101EE0000411425842F0010242500020F0BD416A04
:101EF00041F4001141620120F0BD000010B590F8DE
:101F00002020012A07D0022A05D0416A41F480210D
:101F10004162012010BD3C4800F50070026842F0AB
:101F200001020260026822F47C52026002684B6A7D
:101F300042EA032202600A7D02F01F0301229A4056
:101F4000C3699343C361A0F50070CB69B3B9D0F8FE
:101F50000C329343C0F80C328C894B6864F31F43F6
:101F60004C6900EBC404C4F840320C890B6864F37C
:101F70001F434C6900EBC404C4F84432CB69012B05
:101F800016D1D0F80C321343C0F80C320C884B68D1
:101F900064F31F434C6900EBC404C4F840320C895D
:101FA000CB6864F31F434C6900EBC404C4F84432AB
:101FB0008B697BB1D0F804321343C0F804320B694B
:101FC00073B1D0F814321343C0F81432096A0129EE
:101FD0000CD010E0D0F804329343C0F80432EEE79E
:101FE000D0F814329343C0F81432EFE7D0F81C1243
:101FF0001143C0F81C12D0F8001221F00101C0F802
:102000000012002010BD000000640040704730B591
:1020100090F82040012C07D0022C05D0416A41F4F1
:1020200080214162012030BD21B104682469A407E8
:102030005ED003E00468E468A40753D04FF4D8747A
:10204000056804EB01142D5905F004059560002D79
:1020500054D005682D59ED08556005682C59C4F316
:102060004004D4604FF4DA74056804EB01142D5970
:1020700005F00F05156105682D59C5F30725956114
:1020800005682C59240C54614FF4DC72046802EB8F
:102090000112A4581C700468A458240A5C700468D7
:1020A000A458240C9C700468A258120EDA704FF4E5
:1020B000DE72046802EB0112A4581C710468A45873
:1020C000240A5C710468A458240C9C710468A2580A
:1020D000120EDA71B9B10068016941F020010161A5
:1020E000002030BD416A41F400114162012030BD41
:1020F000416A41F400114162012030BD05682D594B
:102100006D0D1560A9E70068C16841F02001C1604C
:10211000E6E72DE9F05F0546002428684669D0F817
:1021200004908768D0F80CA0D0F810B0D0F81880D0
:10213000F10748D0F90714D001218160B80703D511
:10214000284600F08FFC0CE0780702D54FF40064BD
:1021500007E0380702D54FF4805402E0284600F02B
:1021600080FCF80516D529684FF480708860B805A2
:1021700003D5284600F078FC0CE0780502D544F43D
:10218000005407E0380502D544F4804402E02846B4
:1021900000F069FCF80316D529684FF48030886098
:1021A000B80303D5284600F061FC0CE0780302D5A3
:1021B00044F4004407E0380302D544F4803402E0DC
:1021C000284600F052FC300707D55FEACA6004D504
:1021D00044F4007429681020C86070074FF00807A5
:1021E00007D55FEA0A7004D52868C760284600F062
:1021F000C7F9B00706D52868C068800702D028460E
:1022000000F0C0F9700607D55FEACB6004D544F44E
:102210008064296810200861B00607D55FEA0B705A
:1022200004D528680761284600F0ECFBF00606D5C7
:1022300028680069800702D0284600F0E4FBB0035C
:1022400008D55FEAC96005D529681020486028468E
:1022500000F0DAFBF00307D55FEA097004D52868BF
:102260004760284600F003FC300446D55FEA497019
:1022700040D5F00504D55FEAC87001D044F00104F0
:10228000B00504D55FEA887001D544F002047005FA
:1022900004D55FEA487001D544F00404300529D51F
:1022A00018F0700F26D008F07000402815D006DC1A
:1022B000102809D020280AD0302816D10AE050284A
:1022C0000ED0602811D10EE044F008040DE044F077
:1022D00010040AE044F0200407E044F0400404E065
:1022E00044F0800401E044F480742868816921F09E
:1022F00070018161296804204860002C05D0686A5B
:10230000204368622846FFF781FEBDE8F09F70B564
:102310000446002C03D094F8200010B104E0012002
:1023200070BD204600F09CF82068016821F0020191
:10233000016000F097FE054605260CE000F092FED5
:10234000401B0A2807D9606A40F40030606284F8B4
:102350002060012070BD206840688007EED42068AE
:10236000016841F00101016000F07CFE05460CE0CF
:1023700000F078FE401B0A2807D9606A40F400305C
:10238000606284F82060012070BD20684068C0074A
:10239000EED0207E01283FD02068016821F0800126
:1023A0000160607E01283DD02068016821F0400175
:1023B0000160A07E01283BD02068016821F0200147
:1023C0000160E07E012839D02068016841F01001E9
:1023D0000160207F012837D02068016821F00801C2
:1023E0000160607F012835D02068016821F0040178
:1023F0000160D4E902010843D4E9041211430843FF
:102400006168491E08432168C8610020606201209C
:1024100084F82000002070BD2068016841F0800130
:102420000160BEE72068016841F040010160C0E73B
:102430002068016841F020010160C2E7206801685E
:1024400021F010010160C4E72068016841F0080133
:102450000160C6E72068016841F004010160C8E737
:102460002DE9F04186B00446142101A8FDF7EAFFEA
:102470003E4B3F4ADFF8F080186821683C4C032649
:102480000227401C103200254FF0090C41452FD186
:102490001860012807D1106840F0007010601068C3
:1024A00000F000700090206840F008002060206874
:1024B00000F0080000900196029703950496CDF86D
:1024C00014C001A92B4800F0CDFC002205211320E7
:1024D00000F05AFE132000F049FE002205211420CE
:1024E00000F052FE142000F041FE06B0BDE8F0817D
:1024F000DFF884804145F8D1116841F080611160B6
:10250000116801F0806100911860012807D11068FE
:1025100040F000701060106800F0007000902068BB
:1025200040F002002060206800F0020000904FF4AC
:1025300040500190029703950496CDF814C001A96C
:102540000E4800F08FFC002206213F2000F01CFE08
:102550003F2000F00BFE00220621402000F014FE78
:10256000402000F003FEC0E70064004000000020AF
:1025700030380240000C0240006800400004024075
:102580007047000070B592B00646F7493068F74CC6
:10259000F74D884253D1F74B09AA0021F648FFF7BF
:1025A00036FD0999F34AA1F50071013906D00129D8
:1025B00013D0022920D0052941D12EE0507811787E
:1025C00040EA0121ED48C184D178927841EA0221A4
:1025D0008184208A401C208231E05078117840EAC2
:1025E0000121E748C184D178927841EA02218184AF
:1025F000608A401C608222E05078117840EA012114
:10260000E048C184D178927841EA0221818409F0BE
:10261000FBFAE089401CE08111E05078117840EA33
:102620000120E884D078917840EA0120A88490794C
:102630006884CF4809F0E8FAA089401CA081D249FB
:10264000306888423BD1CB4B02AA08330021CF48E7
:10265000FFF7DDFCC74802990830B1F5897F7CD0CF
:102660003FDC40F20515CA4BA1F20512A94275D014
:1026700027DCA1F58071013971D0012970D0C54ADC
:1026800002296ED003291AD101788DF844104178BF
:102690008DF84510BDF84410118181788DF84410F3
:1026A000C1788DF84510BDF84410518101798DF83D
:1026B000441040798DF84500BDF84400908112B077
:1026C00070BD012A7DD0022A7CD00C2AF7D1B24AF3
:1026D0000378117863F30301407860F307111170F8
:1026E000EDE740F20523A1F2052299426BD01CDCF4
:1026F000A1F50071A94A01394DD0012964D0022900
:1027000074D00329DBD14178037802F5957241EA50
:1027100003219180C178837841EA03215180807937
:1027200010802089401C2081C9E7A2F58072033AFD
:102730007ED09FED9B0AF92A7BD0FA2ABFD101787F
:102740008DF8041041788DF80510BDF90410494248
:1027500000EE901AF8EEE00A04E02DE1BEE081E020
:1027600087E095E080EE801A8E4981ED051A0279A6
:102770008DF8002042798DF8012082798DF80220B1
:10278000C0798DF803009DED000A81ED060AA08A4C
:10279000401CA08293E74178037841EA0321D18469
:1027A000C178837841EA032191844179037941EA30
:1027B0000321A2F85610807950846088401C608004
:1027C0007DE7ACE0CCE022E0417803787A3241EA60
:1027D00003219180C178837841EA03215180807977
:1027E0001080A088401CA08069E7FFE7417803784B
:1027F000D23241EA03219180C178837841EA0321F2
:10280000518080791080E088401CE08057E7417853
:10281000027841EA02226449CA84C278837842EA93
:1028200003228A8480794884084609F0EDF901E0A2
:10283000D8E003E06089401C608140E701788DF8B2
:10284000041040788DF80500BDF9040000EE900AF0
:10285000F8EEE00A80EE801A85ED021AE08A401C4C
:10286000E0822CE702785148017862F30711017089
:1028700025E74F4902784A7042788DF844208278E3
:102880008DF84520BDF844204A80C078087016E7CE
:1028900001788DF8441041788DF84510BDF844104A
:1028A000118081788DF84410C1788DF84510BDF8FD
:1028B0004410518001798DF8401041798DF8411014
:1028C00081798DF84210C0798DF843009DED100A92
:1028D00082ED010A608B401C6083F0E601788DF880
:1028E000401041788DF8411081788DF84210C17800
:1028F0008DF843109DED100A83ED000A01798DF8E3
:10290000401041798DF8411081798DF84210C079DD
:102910008DF843009DED100A83ED010ACFE60178A2
:102920008DF8401041788DF8411081788DF8421073
:10293000C1788DF843109DED100A83ED020A0179EC
:102940008DF8401041798DF8411081798DF8421051
:10295000C0798DF843009DED100A83ED030AAEE6C1
:10296000144900780870AAE6006400402065002041
:1029700050020020A4000020F8030020305E002058
:10298000885E0020C0020020006800402004002073
:10299000B44E0020A44E0020BD000020505A00205C
:1029A0006F128341245A0020F8010020BE0000204D
:1029B000944E0020BC000020114902780A70427831
:1029C0004A7082788DF84020C2788DF841200279D3
:1029D0008DF8422040798DF843009DED100A81ED7D
:1029E000010A6CE601788DF8401041788DF84110AD
:1029F00081788DF84210C0788DF843005FE60000C2
:102A0000C800002070477047704770B5044694F8BE
:102A10002000012805D0606A40F400206062012097
:102A200070BD022084F820002068016821F00101B7
:102A3000016000F017FB05460DE000F013FB401BA2
:102A40000A2808D9606A40F400306062052084F8E2
:102A50002000012070BD20684068C007EDD1606291
:102A600070BD704770477047704770477047704738
:102A70002DE9F0410446A76D00F0F4FA054694F8FC
:102A800035000026022806D08020606584F8346076
:102A90000120BDE8F0812068016821F01601016085
:102AA0002068416921F080014161206C08B9A06C67
:102AB00020B12068016821F00801016020680168E8
:102AC00021F0010101600BE000F0CCFA401B052869
:102AD00006D9202034342062267003206070D8E7A5
:102AE00020680068C007EFD134343F2094F82810E4
:102AF0008840B8602670012060700020C9E790F817
:102B00003510022903D0802141650120704705213D
:102B100080F835100068016821F001010160002093
:102B2000704700002DE9F84304464FF00009CDF846
:102B300000906F484FF416510068B0FBF1F7A56D97
:102B40002E6894F85C00082202FA00F1314210D09D
:102B50002068016849070CD5016821F00401016073
:102B600094F85C0002FA00F1A960606D40F0010089
:102B7000606594F85C104FF0010808FA01F03042EB
:102B800008D021684969090604D5A860606D40F045
:102B90000200606594F85C1004208840304208D040
:102BA00021680968890704D5A860606D40F00400B9
:102BB000606594F85C1010208840304220D0216875
:102BC000096809071CD5A8602068016849030CD56D
:102BD0000068000304D4216C91B1204688470FE0BF
:102BE000A16C69B1204688470AE00168C90503D491
:102BF000016821F008010160216C09B12046884775
:102C000094F85C102020884030424CD0216809683C
:102C1000C90648D5A86094F8350005280BD020686F
:102C20000168490330D50068000328D4616C51B3B2
:102C30002046884737E02068016821F016010160CE
:102C40002068416921F080014161206C08B9A06CC5
:102C500020B12068016821F00801016094F85C103F
:102C60003F208840A86084F8349084F83580216D36
:102C700000293BD001B02046BDE8F0430847E16B96
:102C800009B1204688470EE00168C90507D40168EC
:102C900021F01001016084F8349084F83580E16BF4
:102CA00009B120468847606D00281FD0606DC007BD
:102CB00014D0052084F835002068016821F0010156
:102CC00001600098401C0090B84203D8206800685A
:102CD000C007F6D184F8349084F83580E16C00297F
:102CE00004D001B02046BDE8F0430847BDE8F883B2
:102CF0002C0000202DE9F041044600F0B3F9054610
:102D00005CB1002684F83460022084F83500206825
:102D1000016821F0010101600DE00120BDE8F081B2
:102D200000F0A0F9401B052805D92020606503208C
:102D300084F83500F2E720680068C007F0D1216808
:102D40000A6820480240D4E901031843D4E9033556
:102D50002B43184363691843A3691843E369184375
:102D6000236A18431043626A042A03D1D4E90B236F
:102D70001A43104308602068406920F00700656A24
:102D800029460543012704290DD1A06A0543E06ABD
:102D900048B12046FEF73AFE28B14020606584F82D
:102DA00035700120BAE7206845612046FEF718FE1D
:102DB00094F85C203F2191408160666584F835700D
:102DC0000020ABE73F8010F02DE9F04104460025DC
:102DD000A66D94F8340001280DD0012084F8340049
:102DE00094F835700020012F07D084F834000225B4
:102DF0002846BDE8F0810220FBE7022784F8357001
:102E000060652046FEF73EFE94F85C103F20884047
:102E1000B0602068016841F01601016020684169D6
:102E200041F080014161206C20B12068016841F0CF
:102E3000080101602068016841F001010160D7E7E5
:102E400070B5044600F00EF90546601C02D0044837
:102E50000078044400F006F9401BA042FAD370BD8C
:102E6000200000202DE9F84F0022DFF8A491DFF8C0
:102E7000A08109F108094FF0010E4FF00F0C09F184
:102E8000040A0EFA02F60B683340B34271D14C6863
:102E9000022C01D0122C11D1D40800EB84073D6A1A
:102EA0005407E40E0CFA04FB25EA0B05D1F810B028
:102EB0000BFA04FB4BEA050BC7F820B00768540077
:102EC0000325A540AF4391F804B00BF0030B0BFAB8
:102ED00004FB4BEA070BC0F800B04F68012F05D088
:102EE000022F03D0112F01D0122F11D18768AF43C9
:102EF000D1F80CB00BFA04FB4BEA070BC0F808B092
:102F00004768B7430E79C6F3001696403E434660C5
:102F1000C668AE438D68A5403543C5604C68E40083
:102F20006FD53C4C256845F480452560246804F441
:102F300080440094384C22F003052544D5F80878E5
:102F40009407260F0CFA06F4A743344CA04201D193
:102F500000242EE0324CA04201D1012429E0314C62
:102F6000A04201D1022424E02F4CA04202D103242C
:102F70001FE046E02D4CA04201D1042419E02C4C66
:102F8000A04201D1052414E02A4CA04201D106241C
:102F90000FE0294CA04201D107240AE0274CA042AF
:102FA00001D1082405E0264CA04201D1092400E00B
:102FB0000A24B4403C43C5F80848D8F800409C4374
:102FC0004D68ED0300D51C43C8F80040104D2D1D81
:102FD0002C689C434E68B60300D51C432C60D9F87E
:102FE00000409C434D68ED0200D51C43C9F80040E9
:102FF000DAF800409C434D68AD0200D51C43CAF886
:103000000040521C102AFFF43CAFBDE8F88F0000CE
:10301000003C0140443802400030014000000240C2
:103020000004024000080240000C02400010024070
:103030000014024000180240001C02400020024020
:1030400000240240426931EA020201D081617047E6
:10305000090481617047002A01D081617047090429
:10306000816170470148806870470000200000209F
:1030700000684AF6AA210160002070470248816872
:1030800002781144816070472000002010B50B4881
:10309000016841F400710160016841F480610160E0
:1030A000016841F480710160032000F08DF8002078
:1030B00000F006F800F03EF8002010BD003C024091
:1030C00010B588B001460022362000F05DF83620A9
:1030D00000F04CF800241348016841F01001016031
:1030E000006800F01000019002A903A800F07EFA29
:1030F00000F0A0FA40000C49B0FBF1F1491E0C4869
:103100000A4A026040F2E732C260416004618460B2
:1031100001F005FB10B1012008B010BD044801F01A
:103120002DFBF9E74038024040420F0000100040FC
:10313000080A002082B00C48016841F48041016017
:10314000006800F4804001900748001F016841F0CA
:1031500080510160006800F08050019000220F2132
:10316000901E02B000F010B844380240002809DB7D
:1031700000F01F02012191404009800000F1E02091
:10318000C0F8001170470000F0B40D460D4B1B68ED
:10319000C3F30223C3F10704042C00D90424191D2E
:1031A000072901D2002300E0DB1E012606FA04F104
:1031B000491E294099409E40761E16403143F0BC7E
:1031C00005F091B90CED00E000F00701054A106828
:1031D0004FF6FF03184040EA0120034908431060FE
:1031E000704700000CED00E00000FA052DE9F843FF
:1031F0001848016841F080510160006800F080507B
:103200000090DFF854800127C8F84070FFF72AFFCC
:1032100005464FF47A76114C07E0FFF723FF401B79
:10322000B04202D90320BDE8F8836068C003F4D53A
:10323000C8F84470FFF716FF054606E0FFF712FFD7
:10324000401BB04201D90320EDE760688003F5D54B
:103250000020E8E74038024000000E4200700040C5
:103260002DE9F84F0446DFF81CA22068DFF8189219
:10327000864DC1074FF001084FF0000701D18007CC
:1032800041D5CAF86870FFF7EDFE064607E0FFF784
:10329000E9FE801B022802D90320BDE8F88F2868C8
:1032A0000001F4D420787A49C00705D06068227AFA
:1032B000800140EA027008602078800713D5086812
:1032C000C0F302706268237B920142EA036242EA21
:1032D00000700860D9F80000E16920F01F00491E65
:1032E0000843C9F80000CAF86880FFF7BBFE06462D
:1032F00006E0FFF7B7FE801B022801D90320CCE7C8
:1033000028680001F5D52068410701D4000750D591
:10331000CAF87070FFF7A6FE064606E0FFF7A2FEA9
:10332000801B022801D90320B7E72868C04380002A
:10333000F4D520785749400714D50868C0F30270C7
:103340002269237D920142EA036242EA007008602A
:10335000D9F8000020F4F852206A401E42EA00200A
:10336000C9F800002078000712D50868C0F3036090
:103370002269920142EA0060227E40EA02700860FF
:10338000D9F80000616A20F440300843C9F8000011
:10339000CAF87080FFF766FE064606E0FFF762FE99
:1033A000801B022801D9032077E72868C0438000EA
:1033B000F4D42078800653D534484030016841F079
:1033C00080510160006800F080500090324D286804
:1033D00040F480702860FFF745FE064606E0FFF7E0
:1033E00041FE801B022801D9032056E72868C0054A
:1033F000F5D5274D143D286800F44070F8B1218DB3
:1034000001F4407181421AD0286820F440702349A9
:10341000C1F800800F6028602868C0070FD0FFF750
:1034200021FE064641F2883706E0FFF71BFE801BAF
:10343000B84201D9032030E728688007F5D5A06A93
:103440001249C0F301220831032A12D0086820F47F
:10345000F81008602868218DC1F30B01084328602B
:103460002078C00603D50E4994F82C00086000208F
:1034700013E70A680B4B22F4F812184002430A6063
:10348000E8E70000000047428C3802400038024064
:10349000843802408838024000700040400E4742A5
:1034A000E0114742FFFCFF0F2DE9F04704460D46AF
:1034B000002C13D0DFF82491D9F80000EFB200F00F
:1034C0000F00A8420CD289F80070D9F8000000F073
:1034D0000F00A84204D00120BDE8F0870120FBE7DF
:1034E00020683F4E810712D5400703D5306840F46D
:1034F000E05030602078000703D5306840F4604029
:1035000030603068A16820F0F00008433060207817
:10351000C00731D0324960680839012808D0022834
:103520000BD0032809D0096889070BD40120D3E701
:103530000968890306D40120CEE70968890101D40E
:103540000120C9E7316821F0030101433160FFF731
:1035500089FD804641F2883A07E0FFF783FDA0EB42
:103560000800504501D90320B6E73068616800F0D3
:103570000C00B0EB810FF0D1D9F8000000F00F0083
:10358000A84209D989F80070D9F8000000F00F00AE
:10359000A84201D001209FE72078400705D5306878
:1035A000E16820F4E050084330602078000706D539
:1035B0003068216920F4604040EAC100306000F0CA
:1035C00059F83168074AC1F30311515CC8400649F4
:1035D00008600020FFF774FD00207DE7003C0240FA
:1035E00008380240CC0901082C0000200F2202609C
:1035F0000B4A136803F003034360136803F0F003FE
:103600008360136803F4E053C360126802F46042FD
:10361000D20802610348006800F00F00086070479C
:1036200008380240003C0240014800687047000032
:103630002C00002000B5FFF7F7FF04490968044A91
:10364000C1F38221515CC84000BD0000083802402F
:10365000DC09010800B5FFF7E7FF04490968044ADF
:10366000C1F34231515CC84000BD0000083802403F
:10367000DC09010810B51748006810F00C01164865
:1036800016D0164B042912D0082911D1114C241F31
:10369000216801F03F02216849020AD52068C0F381
:1036A0008810A0FB03010023FCF782FE09E0184606
:1036B00010BD21680023C1F38811A1FB0001FCF7B4
:1036C00077FE2168C1F30141491C4900B0FBF1F0CC
:1036D00010BD0000083802400024F400001BB700B1
:1036E0002DE9F84F0446002C10D02078DC4DC0079F
:1036F00057D0DB4808300168C1F3810101290DD0A2
:103700000068C0F38100022803D00EE00120BDE86C
:10371000F88FD348001D0068400206D52868800352
:103720003FD5606870BB0120F1E76068B0F5803F6D
:1037300010D0B0F5A02F12D0286820F48030286077
:10374000286820F4802028606068E0B1FFF78AFCD8
:10375000064614E0286840F480302860F4E72868C2
:1037600040F480202860286840F480302860EBE72F
:10377000FFF778FC801B642801D90320C7E728687D
:103780008003F5D50DE0FFF76DFC064606E0FFF778
:1037900069FC801B642801D90320B8E728688003EE
:1037A000F5D42078AF4F80074FF0000849D5AC48DA
:1037B0000830016811F00C0F09D00068C0F38100D7
:1037C000022814D1A648001D006840020FD42868C2
:1037D000800704D5E068012801D0012097E7286818
:1037E000216920F0F80040EAC100286029E0E06883
:1037F000B8B101203860FFF735FC064606E0FFF758
:1038000031FC801B022801D9032080E7286880074B
:10381000F5D52868216920F0F80040EAC100286049
:103820000FE0C7F80080FFF71DFC064606E0FFF733
:1038300019FC801B022801D9032068E7286880074B
:10384000F5D42078000729D5DFF8149286486169FD
:1038500009F1740989B101210160FFF703FC0646F3
:1038600006E0FFF7FFFB801B022801D903204EE78B
:10387000D9F800008007F4D510E0C0F80080FFF709
:10388000F1FB064606E0FFF7EDFB801B022801D99D
:1038900003203CE7D9F800008007F4D420784007E3
:1038A00072D50026DFF8B8A10AF1400ADAF8000064
:1038B000C0000BD4DAF8000040F08050CAF80000D5
:1038C000DAF8000000F0805000900126DFF89CB18B
:1038D000DBF80000C00515D4DBF8000040F4807070
:1038E000CBF80000FFF7BEFB814607E0FFF7BAFB0D
:1038F000A0EB0900022801D9032008E7DBF800004B
:10390000C005F3D5DFF858B1A0680BF1700B0128A2
:1039100013D0052818D0DBF8000020F00100CBF808
:103920000000DBF8000020F00400CBF80000A068E5
:1039300030B3FFF797FB81461DE0DBF8000040F055
:103940000100CBF80000F2E7DBF8000040F00400D3
:10395000CBF80000DBF8000040F00100CBF80000DD
:10396000E5E7FFF77FFBA0EB090141F288308142D8
:1039700001D90320CBE6DBF800008007F1D512E087
:10398000FFF770FB81460AE015E0FFF76BFBA0EB49
:10399000090141F28830814201D90320B7E6DBF802
:1039A00000008007F1D4012E05D1DAF8000020F0E4
:1039B0008050CAF80000A069C0B3294908310968DD
:1039C000C1F38101022949D0022805D0C7F86080DF
:1039D000FFF748FB04463CE0C7F86080FFF742FB76
:1039E000064606E0FFF73EFB801B022801D90320B4
:1039F0008DE628688001F5D4D4E907010843616A9F
:103A0000A26A4FF0FF33890103EB520241EA0241FF
:103A1000084394F82C1040EA01611148001D016030
:103A200001203866FFF71EFB044607E014E0FFF7AD
:103A300019FB001B022801D9032068E628688001D1
:103A4000F5D509E0FFF70EFB001B022801D9032082
:103A50005DE628688001F5D4002058E6012056E68E
:103A60000038024000004742800E4742007000408C
:103A70002DE9F74F04469346207F01281BD04FF0D5
:103A8000010884F81C80022060772168CA204862FF
:103A9000216853204862206880684FF00006400586
:103AA0004FF0FF074FF003094FF47A7A16D5FFF76E
:103AB000D9FA05460EE00220BDE8FE8FFFF7D2FAE4
:103AC000401B504506D92068476284F81D90267730
:103AD0000320F1E72068C0684007EFD420688168C0
:103AE00021F480618160FFF7BDFA05460BE0FFF726
:103AF000B9FA401B504506D92068476284F81D90EA
:103B000026770320D8E72068C0684007EFD52068F3
:103B1000816821F0070181602068816841EA0B011A
:103B200081602168019848612068816841F4806162
:103B300081602068476284F81D8026770020BBE7FB
:103B400070B50446002C02D0607F10B106E0012061
:103B500070BD00202077204600F04EF802206077EC
:103B60002168CA204862216853204862204602F03A
:103B700022FBFF25042620B12068456266770120DC
:103B800070BD206881681B4A11408160206881688F
:103B900062681143D4E904231A4311438160216808
:103BA000E068086120680169228941EA02410161F7
:103BB0002068C16821F08001C160206880688006AB
:103BC00008D4204600F00CF920B1206845626677E1
:103BD000012070BD2068016C21F4802101642068FF
:103BE000016CA2691143016420684562012060777D
:103BF000002070BDBFFF8FFF00680349884202D1DB
:103C00000249012008607047002800403C0E4742EE
:103C10002DE9F04704460B46207F012807D04FF0DE
:103C2000010884F81C80022060771AB109E00220A4
:103C3000BDE8F0875878C10603D500F0EF000A30E0
:103C40005870F2B19878D97840EA014558781978D7
:103C5000000240EA413005432168CA2048622168D9
:103C600053204862204602F0A6FA0026FF274FF0B4
:103C70000409B8B12068476284F81D9026770120B6
:103C8000D6E7D87802F08CFA0204587802F088FA65
:103C900042EA0022987802F083FA0243187842EA56
:103CA0004035D9E70F480540206845602068C16865
:103CB00021F08001C1602068806880060AD4204617
:103CC00000F08EF830B12068476284F81D902677A6
:103CD0000120ADE72068476284F81D802677002028
:103CE000A6E700003FFFFF002DE9F04704460D4620
:103CF000207F01282DD04FF0010984F81C9002206C
:103D0000607700263AB320688068400600D4EE70E1
:103D1000A878297840EA01476878E978000240EA03
:103D2000014007432168CA20486221685320486245
:103D3000204602F040FA4FF0FF084FF0040A00B3AB
:103D40002068C0F8248084F81DA026770120BDE8F3
:103D5000F0870220FBE720688068400600D4EE7000
:103D6000287802F01DFA0204687802F019FA42EA93
:103D70000022A87802F014FA0243E87842EA0047E9
:103D8000D0E716480740206807602068816821F462
:103D900080218160D5E903100143206882681143C6
:103DA00081602068C16821F08001C160206880685E
:103DB00080060BD4204600F013F838B12068C0F814
:103DC000248084F81DA026770120C0E72068C0F871
:103DD000248084F81D9026770020B8E77F7F7F003D
:103DE00070B505462868C16821F0A001C160FFF7E1
:103DF00039F904464FF47A7606E0FFF733F9001BF1
:103E0000B04201D9032070BD2868C0688006F4D58F
:103E1000002070BD704770B58AB004460D4603207F
:103E200084F83400606C03281ED0B5F5805F08D09C
:103E3000B5F5006F0AD085B1A06B40F00060A063BB
:103E400016E0A06B40F08050A06311E0204602F025
:103E5000B9FEA16B0143A1630AE0204602F089FE8E
:103E6000A16B0143A16303E0A06B40F08050A0630D
:103E7000A06B012640B1216840F2FF50886384F8AE
:103E8000346001200AB070BD60680490A06805909D
:103E9000E0680690079560690890A069099007A8F6
:103EA00007C88DE8070004A920680EC902F0C6F90A
:103EB00084F834600020E5E77047F0B5426E120EDA
:103EC00093090B70C2F383034B7002F003028A70F4
:103ED000426E120CCA70B0F86420120A0A7190F88F
:103EE00064204A71826E120E4FF6FF7303EA0212CB
:103EF000CA80826EC2F30742CB8843EA1213CB809A
:103F000002F00F020A72B0F86820C2F30722D30948
:103F10004B72C2F380138B72C2F34013CB72C2F3A5
:103F200000130B7300264E73436C01254FF400778A
:103F3000002B0DD0012B44D0026840F2FF51916359
:103F4000816B41F08051816380F834500120F0BDD5
:103F50009207120D0A6190F868200B6943EA820209
:103F60000A61C26E120E0B6943EA92130B61C2F32F
:103F7000C2030B7502F007024A75C26EC2F3074214
:103F800053098B75C2F38203CB759207520F0A76E1
:103F9000B0F86C20C2F307220B7E43EAD2130B76F3
:103FA0000C69641C44650B7E9B1C9C40446591F825
:103FB00008C005FA0CF383655B0A5C43C4650766B9
:103FC0001CE090F868209206920A0A61C26E120EF6
:103FD0000B6943EA02220A61C26EC2F307420B690F
:103FE00013430B61B0F86C20C2F307220B695B1C12
:103FF0004FEA83234365C36587650766C2F3801371
:1040000001F8193F4FEA82624FEA52624A7010F893
:104010006C2F4B7843EAD2134B7002F07F028A7008
:1040200042684FEA12624FEAD213CB70C2F34113D7
:104030000B71C2F382034B714FEA82724FEA127224
:104040008A714268C2F307428B7943EA92138B71FB
:10405000C2F34013CB710E7202F001024A728288E1
:10406000C2F307224FEAD2138B72C2F38013CB72D2
:10407000C2F340130B73C2F300134B73C2F38103FB
:104080008B7302F00302CA7300794FEA5000087480
:104090004D744FF00000F0BD38B50446002000908C
:1040A0006946204602F04EFD10B1A16B0143A163A9
:1040B0000098C0F3432038BD70B504462068416BBA
:1040C0004FF00105CA0540F23A314DD52A0282630C
:1040D0002068C26B8A43C263206B000723D5206B24
:1040E000800702D4206B800609D5206802F0F6F91B
:1040F00028B1A16B0143A1632046FFF7DDFE2168D3
:1041000040F2FF50886384F83450206BC00702D11E
:10411000206B800703D5204600F048F970BD20468B
:1041200000F045F970BD206B0006FBD5206B8006C2
:1041300009D5206802F0D2F928B1A16B0143A1632F
:104140002046FFF7B9FE206BC007EBD1206B80073C
:10415000E8D42068C16A21F00801C16284F83450B3
:10416000204600F024F970BD426B520407D54FF48D
:10417000804181632046BDE8704002F04CBD426B37
:10418000120407D54FF4004181632046BDE870401A
:1041900002F0C7BC426B40F23A231A42E3D0426BB2
:1041A000920703D5A26B42F00202A263426B120790
:1041B00003D5A26B42F00802A263426B920603D5BC
:1041C000A26B42F02002A263426BD20603D5A26B1F
:1041D00042F01002A263426B920503D5A26B42F03B
:1041E0000802A26340F2FF7282632068C26B8A43B6
:1041F000C263206B000623D5206C58B115490165B8
:10420000206CFEF77CFC0028ADD0206CBDE870402F
:1042100002F003BBE06B58B10F490165E06BFEF79C
:104220006EFC00289FD0E06BBDE8704002F0D0BA71
:104230000020A06384F834502046FFF7EBFD70BDEA
:10424000206B0007FBD584F834502046FFF734FE7E
:1042500070BD00001B680008D167000870B50446F7
:10426000002C04D094F83400002510B105E00120A2
:1042700070BD2577204600F047F8032084F834000D
:10428000204600F007F8A5632563012084F8340078
:10429000002070BD70B58AB00446002504950595D0
:1042A000069507950895762009900095CDE901506F
:1042B0002B462A462946206801F0C0FF114E356082
:1042C000206801F0D0FF012535600220FEF7B8FD1F
:1042D000204602F0C4FB38B184F83450A16B01438E
:1042E000A16301200AB070BD204602F047FB30B147
:1042F00084F83450A16B0143A1630120F2E7002050
:10430000F0E70000A0802542F0B587B004461421F4
:1043100002A8FCF797F82149206888423BD1002782
:104320001F48016841F400610160006800F400600A
:1043300001901B481438016841F0040101600168D4
:1043400001F004010191016841F008010160006879
:1043500000F0080001904FF4F850029002260396F6
:104360000497032505950C24069402A90D48FEF731
:1043700079FD04200290039604970595069402A9FE
:104380000948FEF76FFD002205213120FEF7FCFEF3
:104390003120FEF7EBFE07B0F0BD0000002C01401D
:1043A0004438024000080240000C02407047704749
:1043B00070B50446002C05D00025A56294F8510084
:1043C00010B106E0012070BD84F85050204600F086
:1043D00031F8022084F851002068016821F0400182
:1043E0000160D4E901010843D4E9031211430843F1
:1043F00061690843218B01F400710843E1690843B6
:10440000216A0843A16A084321680860A069042161
:1044100001EA1040616A0843216848602068C16968
:1044200021F40061C1616565012084F8510000201C
:1044300070BD000010B586B00446142101A8FCF739
:1044400001F814492068884221D1002112480268ED
:1044500042F480120260006800F4801000900E4860
:104460001438026842F020020260006800F0200068
:1044700000904FF46070019002200290039103209D
:1044800004900520059001A90448FEF7EBFC06B056
:1044900010BD0000005001404438024000140240AA
:1044A0002DE9F84F04460A9E8A4693461F46012589
:1044B0004FF0000894F8500001280ED0012084F835
:1044C0005000FEF7CFFD814694F851006168012845
:1044D0000DD0B1F5827F07D102E00220BDE8F88F50
:1044E000A16809B9042802D04FF00208C3E0BAF16C
:1044F000000F28D0BBF1000F25D0380023D094F84E
:104500005100042802D0052084F851000020606585
:10451000C4F838B0E787A787C4F830A0E786A78635
:104520002064606420680168490603D4016841F092
:1045300040010160E068B0F5006F07D06068E8B343
:10454000012F48D07DE04FF0010894E0606808B189
:10455000012F39D1206B21680088C860206B801C36
:104560002063E08E401EE0862EE020688168890787
:104570000DD5E18E59B1012D09D1216B0988C1609A
:10458000206B801C2063E08E401EE08600252068A2
:104590008168C9070BD0E18F49B1C068A16B088061
:1045A000A06B801CA063E08F401EE0870125FEF712
:1045B00059FDA0EB0900B04206D300E00BE0701CEF
:1045C00002D04FF0030856E0E08E0028CDD1E08FF6
:1045D0000028CAD13BE0206B216800780873206B6B
:1045E000401C2063E08E401EE0862AE0206881683F
:1045F00089070DD5E18E59B1012D09D1216B0978BB
:104600000173206B401C2063E08E401EE086002575
:1046100020688168C9070BD0E18F49B1C068A16BE0
:104620000870A06B401CA063E08F401EE08701254E
:10463000FEF718FDA0EB0900B04201D3701C11D1A8
:1046400086B1E08E0028D1D1E08F0028CED14A4635
:104650003146204602F0F0FA38B14FF00108202030
:10466000606508E04FF0030805E0A06818B920680D
:10467000C168806800900120503460700020207074
:1046800040462BE77047704710B590F83C20012A50
:1046900022D0012280F83C20CA6800238C6822F4D2
:1046A000407222434C6822F4806222430C6822F458
:1046B000006222430C6922F4805222434C6922F4A6
:1046C00000522243C96922F480420A4301684A64C5
:1046D00080F83C30002010BD022010BD70B590F86D
:1046E0003C20012A19D0012600F83C6F02224270BA
:1046F00050F83C2C5468936824F070050C682C43E7
:1047000023F0800349681943546050F83C2C9160B1
:10471000467000210170002070BD022070BD10B5F0
:104720000446002C03D094F83D0010B107E00120AE
:1047300010BD002084F83C00204600F00CF8022058
:1047400084F83D00211D206802F0C0FF012084F89C
:104750003D00002010BD7047022180F83D10016827
:104760008A6802F00702062A03D00A6842F00102B2
:104770000A60012180F83D10002070470168CA6876
:1047800042F00102CA600068816801F00701062951
:1047900003D0016841F001010160002070477047BB
:1047A00070B50446206801694FF00005C9438907C8
:1047B00016D4C168C943890712D4E91E01610120DA
:1047C000207720688069800703D02046FFF7E7FF45
:1047D00005E0204600F086F9204600F075FA2577BE
:1047E00020680169C943490718D4C168C94349070A
:1047F00014D46FF0040101610220207720688069E1
:1048000010F4407F03D02046FFF7C9FF05E02046A3
:1048100000F068F9204600F057FA25772068016912
:10482000C943090717D4C168C943090713D46FF0F6
:1048300008010161042020772068C069800703D047
:104840002046FFF7ACFF05E0204600F04BF920467C
:1048500000F03AFA257720680169C943C90618D4DF
:10486000C168C943C90614D46FF010010161082062
:1048700020772068C06910F4407F03D02046FFF7FE
:104880008EFF05E0204600F02DF9204600F01CFACE
:10489000257720680169C943C90708D1C168C943A0
:1048A000C90704D1891E0161204600F05FFA206823
:1048B0000169C943090609D4C168C943090605D479
:1048C0006FF0800101612046FFF7DCFE206801697E
:1048D000C943490609D4C168C943490605D46FF0E4
:1048E00040010161204600F04BFA20680169C9438C
:1048F00089060BD4C168C943890607D46FF020012B
:1049000001612046BDE87040FFF7BDBE70BD0000EC
:10491000F0B587B00446142102A8FBF793FD644B61
:1049200021680024634A022501266348994226D162
:10493000116841F001011160116801F0010101915C
:10494000116841F010011160116801F0100101912E
:104950004FF440710291039504940594069602A9C0
:10496000FEF780FA4FF4C04002900395049405943A
:10497000069602A95148FEF775FA07B0F0BDB1F1ED
:10498000804F15D04E48814224D1106840F002007B
:104990001060106800F00200019030200290039532
:1049A00004940594069502A94648FEF75BFAE4E7ED
:1049B000116841F001011160116801F001010191DC
:1049C0000F210291039504940594069602A9FEF71F
:1049D00049FAD2E73C48814213D1106840F0080000
:1049E0001060106800F0080001904FF470400290D1
:1049F000039504940594069502A93448FEF732FA0B
:104A0000BBE7334B3348344F994223D1116841F40B
:104A100080711160116801F480710191116841F099
:104A200080011160116801F08001019102960395E7
:104A300004940594069502A9FEF714FA4FF4E05089
:104A40000290039504940594069502A93846FEF752
:104A500009FA92E7214B994212D1116841F4807111
:104A60001160116801F480710191E42102910395B4
:104A7000049405940321069102A9FEF7F3F97CE75B
:104A80001748814293D1106840F080001060106890
:104A900000F0800001904FF4107002900395049490
:104AA00005940920069002A93846FEF7DBF964E771
:104AB0000000014030380240000002400010024077
:104AC000000400400004024000080040000C0240C6
:104AD000000C004000200240001C02400004014085
:104AE00000180040704770B504460D4694F83C002D
:104AF00001280DD0012684F83C60022084F83D0096
:104B000042B1042A1AD0082A2DD00C2A53D13EE0F3
:104B1000022070BD2946206802F058FE2068816995
:104B200041F0080181612068816921F004018161FF
:104B3000206881692A69114381613CE02946206827
:104B400002F078FE2068816941F40061816120688B
:104B5000816921F480618161206881692A6941EA63
:104B60000221816127E02946206802F09DFE20682D
:104B7000C16941F00801C1612068C16921F00401E7
:104B8000C1612068C1692A691143C16113E02946E6
:104B9000206802F0C1FE2068C16941F40061C16172
:104BA0002068C16921F48061C1612068C1692A69F6
:104BB00041EA0221C1613C3466700020207070BD62
:104BC00010B50446002C03D094F83D0010B107E066
:104BD000012010BD002084F83C00204600F00CF8B5
:104BE000022084F83D00211D206802F06FFD0120A5
:104BF00084F83D00002010BD08B500682B492C4A00
:104C0000884208D1106840F001001060106800F080
:104C10000100009008BD2649091FB0F1804F0BD05C
:104C2000244B984211D1086840F0020008600868DF
:104C300000F00200009008BD086840F00100086024
:104C4000086800F00100009008BD1B4B984208D195
:104C5000086840F004000860086800F00400009054
:104C600008BD164B984208D1086840F0080008605B
:104C7000086800F00800009008BD114B984208D168
:104C8000106840F002001060106800F00200009010
:104C900008BD0C4A9042FBD1086840F04000086013
:104CA000086800F04000009008BD000000000140CE
:104CB000443802400004004000080040000C00405E
:104CC00000040140001800407047000010B5044681
:104CD0000122206802F060FD0B482168814202D069
:104CE0000A48814203D1486C40F40040486420687F
:104CF000816801F00701062903D0016841F0010134
:104D00000160002010BD00000000014000040140CF
:104D100010B504460022206802F03EFD114841F221
:104D2000111221689310814202D00F48814209D1AB
:104D3000086A104206D1086A184203D1486C20F470
:104D4000004048642068016A114206D1016A194294
:104D500003D1016821F001010160012084F83D00C8
:104D6000002010BD0000014000040140006803491C
:104D7000884201D1FEF782B9704700000010004060
:104D8000704710B5044620684169C1F3C01194F81A
:104D90003920212A0BD151B1416921F080014161B3
:104DA000206B08B1FDF764FE204602F0CAFE2068C1
:104DB0004169C1F3801194F83A20222A0BD151B1F4
:104DC000416921F040014161606B08B1FDF750FE7F
:104DD000204602F09BFE002010BD08B50068016867
:104DE000C943090702D401684068009008BD00006B
:104DF00070B5044622681068D168526900F00F034C
:104E0000002B08D1850606D58D0604D52046BDE8C1
:104E1000704002F09FBE002B5ED002F0010301F44F
:104E200090752B4358D0C30705D0CB0503D5E36B52
:104E300043F00103E363430705D5D30703D0E36BD6
:104E400043F00203E363830705D5D30703D0E36B85
:104E500043F00403E363030705D5D20703D0E26BF5
:104E600042F00802E263E26B002A2AD0800604D5F1
:104E7000880602D5204602F06DFE20684069C0F326
:104E80008010E16B090700D400B3204602F03EFE1B
:104E900020684169490615D5416921F04001416109
:104EA000606B58B115490165606BFDF728FE00285D
:104EB00007D0606B016DBDE8704008472046FFF7E2
:104EC0008CFF70BD2046FFF788FF70BD2046FFF7BE
:104ED00084FF0020E06370BD020606D50A0604D5F3
:104EE0002046BDE8704003F00DB84006F3D54806F3
:104EF000F1D52046BDE8704002F016BE6D7A00087C
:104F000070B50446002C04D094F83900002510B187
:104F100006E0012070BD84F83850204600F022F8E9
:104F2000242084F839002068C16821F40051C16050
:104F3000204602F05DFE2068016921F49041016184
:104F40002068416921F02A0141612068C16841F46B
:104F50000051C160E563202084F8390084F83A00EC
:104F6000002070BD2DE9F04F87B00446142102A83F
:104F7000FBF768FAFD48DFF8F0A31038D4F800B06A
:104F80000025DFF8E8C3022201230321F84F0615AC
:104F90004FF008094FF02068D34542D1DCF800A05B
:104FA0004AF0804ACCF800A0DCF800C00CF0804C3D
:104FB000CDF804C0D0F800C04CF0100CC0F800C010
:104FC000006800F010000190C80102900392049361
:104FD0000591CDF8189002A93846FDF743FFE64F3A
:104FE000E4483860C7F80480BD60FD603E617D61C3
:104FF000BD61FD614FF4403038627D623846FDF797
:1050000079FE08B1FCF798FE6763BC6300220621B5
:105010005220FEF7B9F85220FEF7A8F807B0BDE815
:10502000F08FDFF858A3D34541D1DCF800A04AF057
:10503000004ACCF800A0DCF800C00CF0004CCDF821
:1050400004C0D0F800C04CF0100CC0F800C00068DC
:1050500000F0100001900291039204930591CDF8A5
:10506000189002A93846FDF7FDFEC248C24F4830ED
:1050700060373860C7F80480BD60FD603E617D61C7
:10508000BD61FD614FF4003038627D623846FDF746
:1050900031FE08B1FCF750FE6763BC6300220621B5
:1050A0005320FEF771F85320FEF760F8B6E7DFF8FB
:1050B000D0E24FF0070A4FF48077F34552D1DFF882
:1050C000ACC20CF1040CDCF8008048F01008CCF8FD
:1050D0000080DCF800C00CF0100CCDF804C0D0F853
:1050E00000C04CF0020CC0F800C0006800F00200E4
:1050F0000190C0200290039204930591CDF818A06E
:1051000002A9A048FDF7AEFEDFF86C829E4808F1C8
:10511000C008C8F80000F804C8F80400C8F808502F
:10512000C8F80C50C8F81060C8F81450C8F81850E7
:10513000C8F81C708012C8F82000C8F824504046F7
:10514000FDF7D8FD08B1FCF7F7FDC4F83480C8F8C6
:105150003840002206212520FEF716F82520FEF70C
:1051600005F85BE7DFF824E2F3454ED1DCF8008078
:1051700048F40038CCF80080DCF800C00CF4003CA7
:10518000CDF804C0D0F800C04CF0080CC0F800C046
:10519000006800F0080001906020029003920493E0
:1051A0000591CDF818A002A97948FDF75BFE71487A
:1051B000DFF8E0813030C8F800004FF00060C8F838
:1051C0000400C8F80850C8F80C50C8F81060C8F8B7
:1051D0001450C8F81850C8F81C70C012C8F8200045
:1051E000C8F824504046FDF785FD08B1FCF7A4FD42
:1051F000C4F83480C8F83840002206212620FDF784
:10520000C3FF2620FDF7B2FF08E7DFF88CE1F34586
:1052100050D1DCF8008048F48028CCF80080DCF81D
:1052200000C00CF4802CCDF804C0D0F800C04CF0C5
:10523000080CC0F800C0006800F0080001904FF4AE
:1052400040700290039204930591CDF818A002A932
:105250004F48FDF707FEDFF83C81464808F160083B
:105260003038C8F800004FF00060C8F80400C8F8F3
:105270000850C8F80C50C8F81060C8F81450C8F8A6
:105280001850C8F81C70C8F82050C8F82450404680
:10529000FDF730FD08B1FCF74FFDC4F83480C8F8C5
:1052A0003840002206212720FDF76EFF2720FDF75A
:1052B0005DFFB3E6DFF8E4C0E345A5D1DFF8ACC09D
:1052C0000CF1040CDCF800A04AF0200ACCF800A095
:1052D000DCF800C00CF0200CCDF804C0D0F800C001
:1052E0004CF0400CC0F800C0006800F04000019095
:1052F0004FF484400290039204930591CDF81890E6
:1053000002A92748FDF7AEFDDFF888901E4809F195
:10531000C0096038C9F80000C9F80480C9F808500D
:10532000C9F80C50C9F81060C9F81450C9F81850E1
:10533000C9F81C704FF40030C9F82000C9F8245097
:105340004846FDF7D7FC08B1FCF7F6FCC4F83490EA
:10535000C9F83840002206214720FDF715FF4720F5
:10536000FDF704FF5AE60000007800404038024094
:105370000010024058600240880D0020007C004070
:1053800000100140000402408864024000440040D4
:10539000000C0240A80E002000480040001401400C
:1053A0000018024037B582B00446134694F83A001C
:1053B000202802D0022005B030BD039AA2B39BB3CF
:1053C00094F83800012832D0012084F83800A26215
:1053D000A3850025E563222084F83A00616B154817
:1053E000C863616B14480864616B1448C864606BDF
:1053F00005652168606B091DFDF7E6FC2068016802
:105400004168019184F83850C16841F48071C160ED
:105410002068416941F0010141612068416941F022
:10542000400141610020C6E7FFE70120C3E70220F9
:10543000C1E70000C77A0008037B00087D7A0008F6
:1054400090F83A30202B01D002207047F9B1F2B128
:1054500090F83830012B1CD081628285C2850021F2
:10546000C163222280F83A2080F838100168CA68A7
:1054700042F48072CA6001684A6942F001024A61DE
:105480000068C16841F02001C16000207047012020
:10549000704702207047000008B50068094988423B
:1054A0000FD109480078FCF74BFB084800680168F9
:1054B00040680090BDE80840012203490348FFF717
:1054C000BFBF08BD00440040064E0020C80C0020AD
:1054D00070472DE9F84304460D4691461E4694F860
:1054E0003900202802D00220BDE8F883B5B1B9F117
:1054F000000F13D094F83800012811D0012084F84F
:1055000038000027E763212084F83900FDF7AAFD61
:105510008046A4F82490A4F826902DE00120E3E72B
:105520000220E1E7E08C401EE084A068B0F5805FD7
:1055300009D04346002280212046009602F015FD46
:10554000B0B10320D0E743460022802120460096D8
:1055500002F00BFD08B10320C6E728882168C0F3DC
:1055600008004860206908B16D1C05E0AD1C03E02F
:10557000216815F8010B4860E08C0028D2D1434621
:10558000002240212046009602F0EFFC08B10320E3
:10559000AAE720203834607027700020A4E790F834
:1055A0003930202B01D002207047A9B1A2B190F868
:1055B0003830012B12D001628284C2840021C16381
:1055C000212280F8392080F838100068C16841F045
:1055D0008001C160002070470120704702207047A1
:1055E0007047FEE770B5134D0024C5F80240102146
:1055F0001148FAF727FF1048046144618461C461CF
:10560000046244628462C4622C706C70EC602C6131
:10561000C5F806406C81046344638463C463052158
:105620000170C82181804180447003493C201031C1
:10563000088170BDBC000020944E00202DE9F0418F
:1056400007462DED028B0D469FED258B264C00263F
:105650002648006AFBF7E3F841EC100B03F020FA50
:1056600053EC182B51EC100BFBF7ECF813D21F483E
:105670004030006AFBF7D3F841EC100B03F010FA4E
:1056800053EC182B51EC100BFBF7DCF803D220691C
:10569000401C206100E02661E7B11348DFED140AE9
:1056A0001830226980696A4300EE100AB8EEC00A19
:1056B00080EE801ABDEEC10A10EE101A91420DDA8A
:1056C00060B109F0D3FA266130B10120BDEC028B44
:1056D000BDE8F0810020F9E70020F7E70020F5E7BA
:1056E0000000000000408F40A8020020B05D0020B4
:1056F00000007A4410B50F480D4901600521416052
:1057000000218160C1604FF40032026152014261A8
:105710000176012242768176C17601774177FCF7E6
:10572000F6FD002803D0BDE81040FCF705BB10BD16
:1057300000640040F803002010B510480E490160D5
:1057400005214160002181604FF04072C2604FF43A
:105750000032026152014261017601224276817675
:10576000C17601774177FCF7D2FD002803D0BDE870
:105770001040FCF7E1BA10BD006800402004002092
:1057800008B52148016841F480010160016801F415
:1057900080010091016841F400110160006800F48B
:1057A00000100090002207210C20FDF7EDFC0C20DA
:1057B000FDF7DCFC002207210E20FDF7E5FC0E20A2
:1057C000FDF7D4FC002207211020FDF7DDFC10209E
:1057D000FDF7CCFC002207211120FDF7D5FC11209C
:1057E000FDF7C4FC002207213920FDF7CDFC39204C
:1057F000FDF7BCFC002207214420FDF7C5FCBDE8F5
:1058000008404420FDF7B2BC3038024010B5B2B0B9
:105810001C2227492BA8FAF7FCFD00212BA808F031
:10582000FBFA244C20601C2221491C3124A8FAF7E1
:10583000F0FD002124A808F0EFFA60601C221C494A
:1058400038311DA8FAF7E5FD00211DA808F0E4FA9B
:10585000A0601C221649543116A8FAF7DAFD00217F
:1058600016A808F0D9FAE0601C22114970310FA87F
:10587000FAF7CFFD00210FA808F0CEFA20611C2214
:105880000B498C3108A8FAF7C4FD002108A808F0DC
:10589000C3FA60611C220649A83101A8FAF7B9FDD4
:1058A000002101A808F0B8FAA06132B010BD0000D4
:1058B00000090108040000202DE9F04F87B01421F1
:1058C00002A8FAF7BFFD00245848016841F0100112
:1058D0000160016801F010010191016841F00201CD
:1058E0000160016801F002010191016841F040018D
:1058F0000160016801F040010191016841F004017B
:105900000160016801F004010191016841F00101A9
:105910000160016801F001010191016841F0080195
:105920000160016801F008010191016841F4807192
:105930000160016801F480710191016841F080010A
:105940000160016801F080010191016841F02001CE
:105950000160006800F020000190DFF8D480002290
:1059600004214046FDF777FBDFF8C890002242F2A1
:10597000FE114846FDF76FFBDFF8BCA001223C2179
:105980005046FDF768FBDFF8B4B044F24007002250
:1059900039465846FDF75FFB042002900125039528
:1059A0000494059402A94046FDF75CFA680302904E
:1059B00003950494059402A94846FDF753FA68023A
:1059C00002900394049402A91D48FDF74BFA3C2071
:1059D0000290039504950226059602A95046FDF70C
:1059E00041FA4FF4FF70029003950494059602A9C2
:1059F0004846FDF737FA029703950494059402A9E7
:105A00005846FDF72FFAA80202900394049402A9C5
:105A10000C48FDF727FAE80302900394049402A9C6
:105A20004046FDF71FFA07B0BDE8F08F303802405E
:105A30000010024000180240001C02400014024006
:105A400000200240000C024010B586B0142101A8CD
:105A5000FAF7F8FC002400941E481D4901604460D8
:105A60007F218160FF21C160046144618461FEF790
:105A700067F808B1FCF760F98DF804408DF805402F
:105A80008DF8064004940594012201A91148FEF7FF
:105A90002BF908B1FCF750F901208DF800008DF8C2
:105AA00001008DF802008DF8034001226946094883
:105AB000FEF7AEF808B1FCF73FF9002211460548A1
:105AC000FDF7D6FF002801D0FCF736F906B010BD6F
:105AD000002800400C09002010B50E480C49016058
